:020000040800F2
:10000000E0080020F90100080D3D00087B390008D8
:10001000093D0008BD160008B140000800000000BE
:10002000000000000000000000000000453E000845
:10003000AD180008000000000F3D0008473E000812
:10004000130200081302000813020008AD3D000867
:100050001302000813020008B11800081302000878
:1000600013020008C5180008D91800085518000820
:10007000130200081302000813020008130200080C
:1000800013020008130200081302000813020008FC
:1000900013020008130200081302000813020008EC
:1000A00013020008130200081302000813020008DC
:1000B00013020008130200081302000813020008CC
:1000C00013020008130200081302000813020008BC
:1000D00013020008A14000081302000813020008E0
:1000E000130200081302000813020008130200089C
:1000F000130200081302000813020008130200088C
:10010000130200081302000813020008130200087B
:10011000130200081302000813020008130200086B
:10012000130200081302000813020008130200085B
:1001300000F002F800F050F80AA090E8000C8244A9
:100140008344AAF10107DA4501D100F045F8AFF286
:10015000090EBAE80F0013F0010F18BFFB1A43F0A5
:100160000103184704D4000024D40000103A24BF2F
:1001700078C878C1FAD8520724BF30C830C144BF0C
:1001800004680C607047000000230024002500264E
:10019000103A28BF78C1FBD8520728BF30C148BFEA
:1001A0000B60704766290AF0C880642900F0B680A9
:1001B000782900F0EF80732900F0818400207047D7
:1001C0001FB500F093FC04000020002108F088FF18
:1001D000E0601FBD10B510BD00F090FD1146FFF7A7
:1001E000EFFF07F0B5FD00F0AEFD03B4FFF7F2FF3F
:1001F00003BC04F00CF80000094880470948004798
:10020000FEE7FEE7FEE7FEE7FEE7FEE7FEE7FEE7C6
:10021000FEE7FEE704480549054A064B7047000023
:100220004F3E000831010008E0020020E0080020F5
:10023000E0040020E0040020704700000FB40449EF
:1002400010B503AA029800F03FFC10BC5DF814FB47
:10025000240000200FB41CB5074B06AA7B44694656
:100260000090059800F001FC0020694600F010FCA9
:100270001CBC5DF814FB00003108000070B504469A
:1002800085690068C10601D5302600E02026C00738
:1002900007D070BDD4E9012130469047206A401C48
:1002A00020626D1EF6D570BD70B504468569007874
:1002B000C00707D170BDD4E9012120209047206AF2
:1002C000401C20626D1EF6D570BD70B50C4605460B
:1002D000012A05D02878800600D5EA69002302E0CB
:1002E000012305E05B1C934202D2E05C0028F9D1B7
:1002F000A869E618C01AA861286A18442862284626
:10030000FFF7BCFF04E0D5E9012114F8010B904789
:10031000B442F8D32846FFF7C7FF70BD2DE9F0417E
:100320000646002410687529314616A510D0AFF393
:100330000080002802DA404213A507E031688A07EE
:1003400001D512A502E0490704D511A5012401E059
:10035000AFF3008000210A2206F1240709E0B0FB78
:10036000F2FCB0FBF2F302FB1C003030785418466C
:10037000491C0028F3D123462A463046BDE8F04107
:1003800000F006B9000000002D0000002B00000066
:100390002000000070B504460D4621461068AFF3FA
:1003A00000802188090502D50F4A7A4402E00E4AEE
:1003B0007A440E32002104F1240305E000F00F0618
:1003C0000009965D5E54491C0028F7D1207800236F
:1003D000000704D5702D02D009B102231132204646
:1003E000BDE8704000F0D4B818D000002DE9F05FEF
:1003F000894604464FF0000ADFF824B1FB44C0F8F8
:1004000020A02046E168884700287DD0252806D016
:10041000D4E901219047206A401C2062F1E70025C1
:100420005F462046E16888472028064607DB312ED4
:1004300005D2B81910F8200C08B10543F1E7A80758
:1004400001D525F00405C4F81CA00027C4F818A0A5
:100450002A2E09D0304603F0D3FE38B304EB8708C8
:10046000303EC8F8186019E059F8041B204604EB28
:1004700087029161E1688847012F064618D1E0693B
:10048000002820DA25F020051DE0D8F8180000EB40
:10049000800006EB40003038C8F818002046E168BC
:1004A0008847064603F0ACFE0028EED1012F0AD0A3
:1004B0002E2E08D12046E16888477F1C0646022F71
:1004C00045F02005C4DBA069002803DA404245F06E
:1004D0000105A061E80701D025F01005A6B1A6F13D
:1004E0004100192802D8203645F400654A463146B5
:1004F000204625604D46FFF755FE60B1012807D024
:10050000ED1D25F0070000E007E000F1080978E79D
:1005100005F1040975E730467AE7206ABDE8F09FE7
:10052000EECF00004FF0000200B513469446964609
:10053000203922BFA0E80C50A0E80C50B1F12001F6
:10054000BFF4F7AF090728BFA0E80C5048BF0CC0A4
:100550005DF804EB890028BF40F8042B08BF704702
:1005600048BF20F8022B11F0804F18BF00F8012B74
:100570007047704770477047704710B500F0BAFA7F
:10058000006810BD10B5044600F0B4FA046010BD58
:100590002DE9F0470D4699469246044600F124089D
:1005A0000168880604D5E06921F01001216000E0AF
:1005B0000120A84201DD471B00E00027A1697A194C
:1005C00002EB0900081AA0612078C00602D4204678
:1005D000FFF754FE002608E0D4E901211AF80600CE
:1005E0009047206A401C761C20624E45F4DB207840
:1005F000C0060AD52046FFF741FE06E0D4E90121F6
:1006000030209047206A401C2062381EA7F1010765
:10061000F4DC07E0D4E9012118F805009047206ACE
:10062000401C2062281EA5F10105F3DC2046FFF7DF
:100630003BFE2078000602D50220BDE8F0870120AD
:10064000FBE770472DE9FF4F0C461E464FF0FF3782
:100650008BB0D2E90001DDF860800A908A46C1F3D0
:100660000A5505B93D46002108464FF00000BAF191
:10067000000F00F4400005DA00EB80004FF4400169
:1006800001EA50004FEA9059B9F1010F00DDB94677
:100690000A9850EA4A000ED044F61050A5F2FF35F1
:1006A00045432F14B8F1000F1ED07542291E1EDDE0
:1006B000C9F100021CE0B8F1010F4FF0000001D0B9
:1006C000302103E0F24305E02154401CB042FBDB43
:1006D00030460022002121540B99C1F80880C1E95D
:1006E00000200FB0BDE8F08FBD1B6D1CDEE74A4651
:1006F00000DA694206A800F087FA06AB93E8070023
:1007000003AB83E8070050460A9900F065FB8DE8CB
:100710000700A0F500501F3800900398002D0ADD57
:1007200042F21F014A460844002303A90390684689
:1007300000F0CEFD09E0A0F500504A461F38002326
:1007400003A90390684600F0D8FD8DE80700000477
:10075000000C03D04FF0FF30410800E01046B8F124
:10076000000F03D00022009215461EE0751E05D42E
:1007700000F0C4F9303262556D1EF9D5B34601223E
:10078000084302D000227F1C04E02078302801D1E9
:1007900000227F1E002A099784D01DE0112D07DA60
:1007A00000F0ACF9303262556D1C50EA0102F5D10F
:1007B000084302D00098C8B10EE00021681E05E091
:1007C000235C625C63542254401E491C8142F7DB67
:1007D000AB46A81B401E0990002004F80B000B98A4
:1007E000099AC0F80880C0E9002B7AE711264FF07B
:1007F000000857E72DE9F04F88460446D21D22F045
:10080000070191B0D1E90001CDE90A0103F052FCE2
:1008100002460B98C00F01D02D2007E02068810709
:1008200001D52B2002E0202101EAC000032A099013
:1008300001D0072A05DB03464146204600F0A4F913
:100840000BE12078800601D5E06900E00620B8F1D0
:10085000650F814606D0B8F1660F18D0B8F1670F62
:1008600070D131E00020B9F1110F009001DB1123AC
:1008700001E009F101030AAA01A90CA8FFF7E2FEB1
:10088000DDE90C70002609F10105834647E00120EF
:100890004B4600904FF000470AAA01A90CA8FFF7A9
:1008A000D1FEDDE90DB00C995D46002610B909F1C5
:1008B00001000D18B9EB050003D4C0F1FF3609F1B2
:1008C0000105A5EB09002BE0B9F1010F01DA4FF0AA
:1008D00001090020B9F1110F0090484601DD1123F4
:1008E00000E003460AAA01A90CA8FFF7ABFEDDE968
:1008F0000C704D4600268346207800070AD4AB458D
:1009000000DA5D4601A8012D04DD411911F8011C32
:10091000302907D04F4502DA17F1040F04DA01201D
:1009200082460FE06D1EEEE7002F02DCED1B3E4419
:1009300003E0781CA84200DD7D1CB81B00F1010A11
:100940004FF000472078000703D4AA4501DB4FF0A1
:10095000FF3A0021B7F1004F0DF143088DF8431025
:1009600024D002202B23002F01DA7F422D230A21DD
:10097000021EA0F1010000DC5FB197FBF1FC97FBC8
:10098000F1F201FB1C7C17460CF1300C08F801CD8C
:10099000EEE7A8F1010003702188090501D5452182
:1009A00000E06521A0F1010800F8011C09980FA9D9
:1009B000A1EB0807FF1D00B10120411901EBEA700E
:1009C000A1693844081A401EA0612078C00602D4EC
:1009D0002046FFF753FC099828B1D4E9012190473C
:1009E000206A401C20622078C00622D52046FFF7EE
:1009F00045FC1EE0002E04DBB34502DD01A8805D4E
:100A000000E03020D4E901219047206A401C206298
:100A1000761CAAF101005FEA000A0AD100F066F82C
:100A2000C0680168405CD4E901219047206A401CFD
:100A30002062281EA5F10105DCDC07E0D4E90121D4
:100A400018F8010B9047206A401C2062381EA7F15D
:100A50000107F3DC2046FFF727FC032011B041E635
:100A600001694A1C02610878704700B58FB0CDE972
:100A700001310021059105497944CDE90310114662
:100A80006846FFF7B3FC0FB000BD0000E5FFFFFFB5
:100A90000A6802F8010B0A60704710B5436913B188
:100AA000AFF3008001E0FFF710FC012010BD1278C9
:100AB00000F124010A7000224A700122EDE711685A
:100AC0004FF0FF32E9E70000074B70B50D467B445D
:100AD000FFF7CBFF0446284600F008F910B14FF0AD
:100AE000FF3070BD204670BDFB3B000000487047E2
:100AF000A0020020004870478002002030B5B0F10D
:100B00000A024FEA900E71F100034EEA817EB0EBCB
:100B10000E0061EB91014FEA101E4EEA017E10EBD0
:100B20000E0041EB11114FEA102E4EEA016E10EB50
:100B30000E0041EB11214FEA104E4EEA014E10EB30
:100B40000E0041EB1141401841F100014FEAD00085
:100B500040EA41704FEAD10110EB80054FEA810471
:100B600044EA907444EB01046D1944EB0404521BF5
:100B7000A3414FF0000348BF0A3200D530BD401CEE
:100B800041F1000130BD00002DE9F0411F4604464F
:100B900003260168072A01F4006004DB08B116A5EA
:100BA00005E016A503E008B115A500E015A521F0A4
:100BB00010002060A069C01EA0610FB1401EA0619E
:100BC0002046FFF75BFB4FB1D4E90121384690473F
:100BD000206A401C2062C01C206206E0206AFAE7FE
:100BE000D4E9012115F8010B9047761EF8D2204672
:100BF000FFF75AFBBDE8F0814E414E006E616E007A
:100C0000494E4600696E66002DE9F047814616465A
:100C10008AB0354878440DC88DE80D0032487844D4
:100C2000801C03AC0DC884E80D0041F69B300844DD
:100C3000372190FBF1F290FBF1F5A5F1800501FB66
:100C400012041B3C02D56442012000E00020DFF8C2
:100C500098A080460027FA44AAF1BE0A0EE0E007F9
:100C60000AD03246684607EB470101230AEB8101AF
:100C700000F043FB8DE8070064107F1C002CEED1D0
:100C8000194F7F44AE3F19E0E80715D007EB041079
:100C90000DF1180A90E80E008AE80E00C068F042D4
:100CA00001D1981908903246012306A903A800F043
:100CB00024FB03AB83E807006D10641C002DE3D117
:100CC0004FF0010332466946B8F1000F03A802D085
:100CD00000F0FEFA01E000F010FBC9E90001C9F8DC
:100CE00008200AB0BDE8F087F4C80000007B00F0DF
:100CF0008000704700487047800200207546FFF76B
:100D0000F9FFAE4605006946534620F007008546C8
:100D100018B020B5FFF77EFABDE820404FF000067E
:100D20004FF000074FF000084FF0000B21F00701D3
:100D3000AC46ACE8C009ACE8C009ACE8C009ACE816
:100D4000C0098D46704710B50446AFF300802046B9
:100D5000BDE81040FFF749BA4FF0013C50F8042BB2
:100D600051F8043B9A4221D1A2EB0C03934313EABE
:100D7000CC1317D150F8042B51F8043B9A4215D1EB
:100D8000A2EB0C03934313EACC130BD150F8042BC2
:100D900051F8043B9A4209D1A2EB0C03934313EAA6
:100DA000CC13DBD04FF00000704700BFD01A01BA5F
:100DB000B1FA81F101F0180122FA01F0CB40C1F142
:100DC0002001DBB2C0B2C01A2CFA01F3D11A914350
:100DD00011EAC311E6D170475FEA400C08BF91F0F9
:100DE000000F4FEA8C234FEAC12243EA51514FEAE8
:100DF0001C5018BF00F5F0404FEA300018BF41F01A
:100E000000415FEA6C5C00F02980BCF1FF3F08BF45
:100E100040F080407047130C06BF12044FF0100CD6
:100E20004FF0000C130E04BF12020CF1080C130F4C
:100E300004BF12010CF1040C930F04BF92000CF1DB
:100E4000020CD30F04BF52000CF1010C11464FF0FD
:100E50000002A0F11F00A0EB0C00704711F0004F42
:100E600008BF704731F000413FF4D5AF0B0C06BF0F
:100E700009044FF0100C4FF0000C0B0E04BF0902D8
:100E80000CF1080C0B0F04BF09010CF1040C8B0FC3
:100E900004BF89000CF1020CCB0F04BF49000CF118
:100EA000010CCCF12003A0EB0C0022FA03F302FAB0
:100EB0000CF241EA030100F10100704720F07F4C81
:100EC00080EA030023F07F47ACEB070303F57C5374
:100ED00000F0004003F1FF032DE980494FEA154B74
:100EE00009B44FEA144325EA0B4E24EA03480FF2F3
:100EF000042606EB132749083E785FEA320203FB1B
:100F00000667C7F5000707FB06F64FEA54374FEAB6
:100F1000D64606F1020607FB066CCCF1005C4FEAF0
:100F20001C472CEA074C07FB06F40CFB06F504EB08
:100F300015464FEA961634BF00204FF000404FEAA6
:100F4000D13706FB07FC4FEA1C4C0CFB0BF7D21BFE
:100F500003FB0CF761EB07010CFB0EF7B0EB07404E
:100F600072EB17420CFB08F734BFA2EB0742B2EB5F
:100F7000074261EB17414FEA0C444FEA910706FB29
:100F800007FC4FEA1C4C0CFB0BF7B0EBC74072EBB5
:100F9000573203FB0CF734BFA2EBC742B2EBC74298
:100FA00061EB57310CFB0EF7B0EBC70072EB5772D9
:100FB0000CFB08F734BFA2EBC702B2EBC70261EB30
:100FC0005771039F4FEA816141EA921104EBCC040F
:100FD0004FEAD1374FEA826206FB07FC42EA9012E1
:100FE0004FEA80604FEA1C4C0CFB0BF7D21B03FB53
:100FF0000CF761EB07010CFB0EF7B0EB074072EB4F
:1010000017420CFB08F734BFA2EB0742B2EB0742D2
:1010100061EB17414FEA8C554FEA910704EB9C2492
:1010200006FB07FC4FEA1C4C0CFB0BF7B0EBC74070
:1010300072EB573203FB0CF734BFA2EBC742B2EBA3
:10104000C74261EB57310CFB0EF7B0EBC70072EBF8
:1010500057720CFB08F734BFA2EBC702B2EBC70212
:1010600061EB577115EB4C254FEA816141EA921112
:101070004FEA82624FEAD13742EA901206FB07FC40
:1010800044F100044FEA80604FEA1C4C0CFB0BF764
:10109000D21B03FB0CF761EB07010CFB0EF7B0EB67
:1010A000074072EB17420CFB08F734BFA2EB074274
:1010B000B2EB074261EB174115EB1C154FEA81318A
:1010C00041EA92414FEA823242EA90424FEA80304E
:1010D0004FEA0C7644F1000448EA03434EEA0B4819
:1010E0004FF0000EB2EB080C71EB030724BF624611
:1010F00039464EEB0E0E4FF0000B0018524149419D
:101100004BEB0B0BB2EB080C71EB03077BF1000B05
:1011100024BF624639464EEB0E0E4FF0000B00180E
:10112000524149414BEB0B0BB2EB080C71EB03073F
:101130007BF1000B24BF624639464EEB0E0E51EA9E
:10114000020718BF46F0010616EB0E7655F10002B5
:1011500054F1000103D5BDE88901BDE80088BDE870
:101160008901BDE80048B619524141EB0101A3F1E4
:101170000103704780807F7E7D7C7B7A79787776EB
:1011800076757473727171706F6E6E6D6C6C6B6A64
:101190006A69686867666665646463636261616002
:1011A000605F5F5E5E5D5D5C5C5B5B5A5A5959587F
:1011B00058575756565555555454535352525251E9
:1011C000515050504F4F4F4E4E4D4D4D4C4C4C4B3F
:1011D0004B4B4A4A4A494949484848474747474686
:1011E00046464545454444444443434343424242C2
:1011F00042414141002B9C4630D477002BD01CB596
:101200004FEA370703B44FF010004FF01001BAF166
:10121000000F06D0BCF1000FDCBF40F0080040F02A
:1012200008014FF000000FBCBDE810400BF1010BAE
:10123000BBF1010F08BF5FEA170722BF12F10102DD
:1012400011F101014FF0004143F1000300F00040B3
:1012500043EA00007047F9D35708D0E746EA06464C
:1012600013F1400F4FEA16461FDD13F1200FDFBFC9
:1012700016430A46002120335B42BED0C3F120074B
:1012800046EA064602FA07F74FEA164646EA070616
:10129000C3F1200722FA03F201FA07F721FA03F15A
:1012A0004FF0000342EA0702A7E746EA020646EAD1
:1012B00006464FEA164646EA0106BCBF46EA06461F
:1012C000360C4FF000034FF000024FF0000194E79E
:1012D0002DE9804C9A46934670B491E8380007C8CF
:1012E00031EA400C48BF34EA430C03D5FFF7E6FD72
:1012F000FFF780FFF0BCBDE8008C2DE9804C9A46DA
:10130000934670B491E8380007C810F0804F08BFCA
:1013100013F0804F03D100F005F8FFF76BFFF0BC2E
:10132000BDE8008C20F07F4780EA030023F07F4C6B
:1013300007EB0C03A3F57C5300F00040A3F1FE0380
:1013400092F0000F00F0B38095F0000F00F077806E
:101350002DE901494FEA11404FEA144621EA0048BD
:1013600000FB06FC24EA064708FB06F607FB08F824
:1013700000FB07F718EB06484CEB164C4FEA124BF4
:1013800018EB07484FEA15464CEB174022EA0B4E84
:101390000BFB06FC25EA06470EFB06F607FB0EFED6
:1013A0000BFB07F71EEB064E4CEB164C4FF00006FE
:1013B0001EEB074E4CEB174B18EB0B0840F10000EF
:1013C00018EB0E0B58EB000840F100008F1A4FF09D
:1013D00000013CBFC943661B14BFB5EB040C0021E0
:1013E0003CBFC943F61B4FEA17444EEA8E0E27EA6C
:1013F00004454FEA1C4704FB07622CEA074C05FB37
:1014000007F70CFB05F604FB0CFC16EB074642EB5A
:10141000174216EB0C4642EB1C421BEB060658EB40
:101420000202414146EA9E0601D5BDE80189B6198E
:10143000524141EB0101A3F10103BDE801894FEAEB
:1014400014454FEA114724EA054621EA074C05FBFB
:1014500007F406FB07F70CFB06F105FB0CFC11EB90
:10146000074144EB17444FEA124711EB0C4144EBA0
:101470001C4422EA074C05FB07F206FB07F70CFBAE
:1014800006F605FB0CFC16EB074642EB174216EB83
:101490000C4642EB1C456A1854F1000148BF7047E6
:1014A000B619524141EB0101A3F10103704795F0D8
:1014B000000F37D04FEA11424FEA144721EA0246A3
:1014C00024EA074C02FB07F106FB07F70CFB06F4C6
:1014D00002FB0CFC14EB074441EB17414FEA1547A4
:1014E00014EB0C4441EB1C4125EA074C02FB07F5C9
:1014F00006FB07F70CFB06F602FB0CFC16EB074697
:1015000045EB174516EB0C4645EB1C42121951F101
:10151000000148BF7047B619524141EB0101A3F1E8
:10152000010370474FEA14454FEA114724EA054684
:1015300021EA074C05FB07F106FB07F70CFB06F257
:101540004FF0000605FB0CFC12EB074241EB174184
:1015500012EB0C4251EB1C4148BF7047921841EB13
:101560000101A3F10103704770B50446002520680E
:10157000806800F00100F0B12068806820F0010070
:101580002168886001F060F905460EE001F05CF921
:10159000401B022809D9A06A40F01000A062E06A4E
:1015A00040F00100E062012070BD2068806800F01A
:1015B00001000028EAD10020F6E770B505466C6A04
:1015C000A06A00F05000E0B9A06A40F40070A06288
:1015D0002068806800F46020B0F5602F0DD1207B7A
:1015E00058B9A06A20F48070A062A06A00F480500C
:1015F00018B9A06A40F00100A062204600F028FB64
:1016000003E0206A016B2846884770BD70B5054627
:101610006C6AA06A40F04000A062E06A40F00400FA
:10162000E062204600F016FB70BD70B50446656AA6
:10163000284600F00EFB70BD38B50446002500209A
:1016400000902068806800F0010080BB20688068FE
:1016500040F0010021688860164800681649B0FB18
:10166000F1F0009002E00098401E009000980028E1
:10167000F9D101F0E9F8054613E001F0E5F8401B67
:1016800002280ED9A06A40F01000A062E06A40F083
:101690000100E06200BF002084F8240000BF0120A8
:1016A00038BD2068806800F001000028E5D00020E7
:1016B000F6E700001C00002040420F0000BFFEE7DC
:1016C0002DE9F04781460E4614460027B84600250E
:1016D00007E004FB05600C4931F810000744681C62
:1016E000C5B21E2090FBF4F0A842F2DC1E2090FB55
:1016F000F4F0B7FBF0F01FFA80F8414603A0FEF7C4
:101700009DFD4046BDE8F087500000204D51345FFC
:1017100076616C3A2025640D0A0000002DE9F84F2F
:101720000446894692464FF0000B00200090524636
:1017300049462046FFF7C4FF8346052002F04EFECF
:10174000584607F06DFF07460022094B07F0B8FF27
:10175000054607F0DBFC0090009808F0C1FA05464A
:101760002A460B4603A0FEF769FD0098BDE8F88FF6
:101770000000543F4D51345F766F6C746167652093
:101780003D2025660D0A00002DE9F04781460E46F2
:1017900014460027B846002507E004FB05600C4905
:1017A00031F810000744681CC5B21E2090FBF4F00D
:1017B000A842F2DC1E2090FBF4F0B7FBF0F01FFA19
:1017C00080F8414603A0FEF739FD4046BDE8F087AA
:1017D000500000204D51375F76616C3A2025640D32
:1017E0000A0000002DE9F84F0446894692464FF062
:1017F000000B00200090524649462046FFF7C4FFE8
:101800008346052002F0EAFD584607F009FF074627
:101810004FF06632094B07F053FF054607F076FCA0
:101820000090009808F05CFA05462A460B4604A092
:10183000FEF704FD0098BDE8F88F000066664A3F99
:101840004D51375F766F6C74616765203D2025666A
:101850000D0A00000848006800F0020050B10120A5
:101860000649087000BF0448406840F00200024981
:10187000486000BF704700000000024040000020A8
:1018800030B590F840500124AC40C56B6C600468E2
:1018900063604468102C04D10468A2600468E160AD
:1018A00003E00468A1600468E26030BD7047000096
:1018B00010B5012000F002FE01200149086010BDB2
:1018C0001404014010B5082000F0F8FD082001497B
:1018D000086010BD1404014010B5102000F0EEFDAA
:1018E00010200149086010BD1404014070B5044681
:1018F000B3F5804F13D1D1E9000540EA05108D689A
:1019000040EA05208D6928438D8940EA054054F856
:101910002250064E3540284344F8220003E06FF081
:10192000704044F82200002070BD00000000F0CF9D
:1019300070B50246086852F8200020F001000E68D9
:1019400042F826008868082801D1402300E00023DF
:10195000486818438E683043CE6830430E69304380
:101960004E693043CE6930430E6A30434E6A30438D
:101970008E6A3043CE6A30430E6B40EA06048869B3
:101980000443486B0443074D45F4806545F4E02566
:10199000086852F82000A84320430E6842F8260049
:1019A000002070BD7FFB080010B50346D1E900049C
:1019B00040EA04108C6840EA04208C8940EA044420
:1019C000088A401E44EA0054087D801E44EA0060F4
:1019D0008C692043541C53F8244004F040442043B5
:1019E000541C43F82400002010BD0000F8B5044644
:1019F00000260020009000BF94F82400012801D1A7
:101A00000220F8BD012084F8240000BF2046FFF723
:101A1000ABFD0646002E62D1A06A20F4885040F04B
:101A20000200A062022000F0C5FF30490968B1FB46
:101A3000F0F04000009002E00098401E00900098F6
:101A40000028F9D12046FFF7F7FD2068806840F0B4
:101A500008002168886000F0F7FE054611E000F0FC
:101A6000F3FE401B0A280CD9A06A20F0020040F0C7
:101A70001000A06200BF002084F8240000BF0120F5
:101A8000BFE72068806800F008000028E7D12068E0
:101A9000806840F004002168886000F0D5FE0546AB
:101AA00011E000F0D1FE401B0A280CD9A06A20F0FA
:101AB000020040F01000A06200BF002084F8240063
:101AC00000BF01209DE72068806800F00400002826
:101AD000E7D1A06A20F0020040F00100A06200BF40
:101AE000002084F8240000BF30468AE71C00002054
:101AF00038B5024600230020009000BF92F8240071
:101B0000012801D1022038BD012082F8240000BF45
:101B10004868072812D21068406B0C79641E04EBE9
:101B200084051F24AC40A0430D796D1E05EB85058F
:101B30000C68AC4020431468606327E048680D28B7
:101B400012D21068006B0C79E41F04EB84051F248B
:101B5000AC40A0430D79ED1F05EB85050C68AC404A
:101B600020431468206311E01068C06A0C790D3CB2
:101B700004EB84051F24AC40A0430D790D3D05EB1B
:101B800085050C68AC4020431468E06208680A28A8
:101B900012D31068C0680C780A3C04EB4405072493
:101BA000AC40A0430D780A3D05EB45058C68AC4080
:101BB00020431468E0600FE0106800690C7804EBC3
:101BC00044050724AC40A0430D7805EB45058C681F
:101BD000AC402043146820610868102802D00868CF
:101BE000112827D1174C1068A0421ED110688068B8
:101BF00000F40000F0B91068806840F40000146838
:101C0000A0600868102815D10F4800680F4CB0FB81
:101C1000F4F000EB80004000009002E00098401ECD
:101C2000009000980028F9D104E0906A40F020006C
:101C30009062012300BF002082F8240000BF1846F4
:101C400061E70000002401401C00002040420F001A
:101C500070477047704700002DE9F04104460027A7
:101C600000250026A84614B90120BDE8F081A0682F
:101C700010B1207D00B100BFA06A30B90020E06241
:101C800084F82400204600F097F82046FFF76CFC0B
:101C90000746A06A00F01000002873D1002F7ED103
:101CA000A06A20F4885040F00200A0623F4AD4E9C4
:101CB0000001904208D1E069B0F5402F02D14FF405
:101CC000002002E0E06900E0E0690143207B41EA96
:101CD00040000643A068B0F5807F02D0A0680128CC
:101CE00002D14FF4807000E000200543207D0128E0
:101CF00011D1207B38B9A069401E4FF4006141EA40
:101D00004030054307E0A06A40F02000A062E06A8E
:101D100040F00100E0622068406820F469402843F8
:101D20002168486020688068214908403043216864
:101D30008860A068B0F5807F02D0A068012802D139
:101D40004FF4807000E00020B0F5807F03D1208A3E
:101D5000401E4FEA00582068C06A20F4700040EA34
:101D600008002168C8622068806812490840B042B3
:101D700009D10020E062A06A20F0020040F00100DA
:101D8000A06211E00BE0A06A20F0020040F0100019
:101D9000A062E06A40F00100E062012704E0A06A6E
:101DA00040F01000A062012738465EE7003C014089
:101DB000FDF7E1FFFE0E1FFF704700002DE9F04127
:101DC00004460D461646002757492068884203D02E
:101DD00056492068884205D15348001D006800F428
:101DE000702000E0002000287ED100BF94F824007D
:101DF000012802D10220BDE8F081012084F82400EE
:101E000000BF2046FFF718FC0746002F6DD1A06ADF
:101E100040F60161884340F48070A0624349206825
:101E2000884209D14048001D006800F4702008B9BC
:101E3000012002E0002000E0012078B1A06A20F437
:101E40008010A0622068406800F4806000B3A06A3F
:101E500020F4005040F48050A06219E0A06A40F4E1
:101E60008010A06230492068884203D02F49206842
:101E7000884205D12C48001D006800F4806000E015
:101E8000002028B1A06A20F4005040F48050A062E5
:101E9000A06A00F4805020B1E06A20F00600E06201
:101EA00001E00020E06200BF002084F8240000BFB1
:101EB0001F48216A88621F48216AC8621E48216A39
:101EC00008636FF00200216808602068806840F4B1
:101ED000807021688860226802F14C0133462A46EE
:101EE000206A00F045F901E01AE014E020688068FB
:101EF00000F46020B0F5602F06D12068806840F4BF
:101F0000A000216888600CE02068806840F48010A0
:101F10002168886005E000BF002084F8240000E00C
:101F20000127384667E700000024014000280140EF
:101F3000BB1500082B1600080D16000870B50446E6
:101F4000002594F82100022803D00420A063012575
:101F5000C1E02068006820F00E0021680860206859
:101F6000006820F00100216808605C492068884210
:101F700052D95A4978392068884201D1012047E076
:101F8000564964392068884201D1102040E0534905
:101F900050392068884201D1801539E04F493C39D9
:101FA0002068884201D1801432E04C4928392068E9
:101FB000884202D14FF480302AE048491439206821
:101FC000884202D14FF4801022E0444920688842C0
:101FD00001D140041CE042492068884201D101201F
:101FE00016E03F4914312068884201D110200FE0EB
:101FF0003B4928312068884201D1801508E03849E2
:102000003C312068884201D1801401E04FF48030D7
:102010003349091F086051E0304978392068884207
:1020200001D1012047E02D4964392068884201D15F
:10203000102040E0294950392068884201D180159C
:1020400039E026493C392068884201D1801432E0C9
:10205000224928392068884202D14FF480302AE092
:102060001E4914392068884202D14FF4801022E0C2
:102070001A492068884201D140041CE018492068B0
:10208000884201D1012016E01549143120688842A8
:1020900001D110200FE0124928312068884201D177
:1020A000801508E00E493C312068884201D1801437
:1020B00001E04FF48030094980394860012084F8FC
:1020C000210000BF002084F8200000BF606B10B129
:1020D0002046616B8847284670BD000080000240A2
:1020E000080402400146002209B9012070471E4B36
:1020F000086898420BD21D4B0868C01A1423B0FB25
:10210000F3F08000086419480838C8630AE0164BE9
:102110000868C01A1423B0FBF3F08000086412486A
:102120000838C863022081F821000868026843F675
:10213000F0708243D1E901031843CB6818430B695F
:1021400018434B6918438B691843CB691843024302
:102150000868026000208863012081F821000020C7
:1021600081F8200000BFC1E70804024008000240D7
:102170002DE9F04104460D4616461F464FF0000873
:1021800000BF94F82000012802D10220BDE8F081B0
:10219000012084F8200000BF94F8210001282CD1F0
:1021A000022084F821000020A0632068006820F04D
:1021B0000100216808603B46324629462046FFF769
:1021C0005FFBE06A30B12068006840F00E002168D3
:1021D00008600BE02068006820F0040021680860B7
:1021E0002068006840F00A002168086020680068E4
:1021F00040F001002168086006E000BF002084F87C
:10220000200000BF4FF002084046BFE770B58EB017
:102210000546142002F0E2F8012D21D0082D13D03C
:10222000102D10D110218C4800F0F6FA58B900BFDB
:1022300020218A4800F0F8FA00BF00BF202186481C
:1022400000F0F2FA00BF04E10821834800F0E4FA4C
:1022500028B900BF2021814800F0E6FA00BFF8E06D
:1022600001217F4800F0D8FA012879D17DA0FDF73F
:10227000E5FF6FF001007E4909684860E6E0002054
:1022800002F032FA0446012C60D17AA0FDF7D6FFA5
:102290007B480078072829D2DFE800F028040A10DC
:1022A000161C220077488088401E764988801EE0F0
:1022B00074488079401E7349887118E07148C0796C
:1022C000401E7049C87112E06E480078401E6D498A
:1022D00008700CE06B484078401E6A49487006E080
:1022E00068488078401E6749887000E000BF00BFE2
:1022F00064488078009063484378027862A104A81B
:10230000FDF7A8FF4FF4784004A910221346CDE949
:1023100000210290D22278211E2005F047FC594866
:10232000C07900905748837982885CA104A8FDF7A2
:1023300091FF4FF4784004A910221346CDE9002103
:102340000290D2228C211E2005F030FC022C62D19A
:1023500057A0FDF773FF4A48007807282BD200E00A
:1023600076E0DFE800F028040A10161C2200454839
:102370008088401C434988801EE042488079401C88
:102380004049887118E03F48C079401C3D49C871F8
:1023900012E03C480078401C3A4908700CE039488B
:1023A0004078401C3749487006E036488078401C29
:1023B0003449887000E000BF00BF32488078009048
:1023C00030484378027830A104A8FDF743FF4FF46A
:1023D000784004A910221346CDE900210290D222B0
:1023E00078211E2005F0E2FB2648C07900902548A0
:1023F0008379828829A104A8FDF72CFF4FF4784047
:1024000004A910221346CDE900210290D2228C218A
:102410001E2005F0CBFB032C18D112A0FDF70EFFF8
:102420001848807817494978164ECDE9001033785E
:10243000F279B179B08806F07BFD0D48006800683C
:1024400040F001000A490968086000E017E700BF92
:1024500000BF00BF0EB070BD00180140000C01406D
:1024600000080140574B5F5550B0B4CFC20D0A0071
:10247000600200204B455930B0B4CFC20D0A0000B5
:10248000490000207402002054696D653A253032FD
:10249000643A253032643A25303264004461746510
:1024A0003A253034642D253032642D2530326400D5
:1024B0004B455931B0B4CFC20D0A000010B50446E7
:1024C00004480068204020B1024804602046FFF71D
:1024D0009DFE10BD140401402DE9F847024600237B
:1024E0009C467BE14FF0010808FA03F4D1F8008024
:1024F00008EA0400A0427DD1DFF8F4A2D1F80480FC
:10250000A8EB0A09D0453AD014DCB8F1030F50D03B
:1025100009DCB8F1000F31D0B8F1010F1CD0B8F1CF
:10252000020F49D120E0B8F1110F18D0B8F1120F05
:1025300042D11EE0B9F5881F25D006DCB9F5803FF1
:1025400020D0B9F5801F37D11AE0B9F5001F18D097
:10255000B9F5041F30D117E0D1F80CC02DE0D1F847
:102560000C8008F1040C28E0D1F80C8008F1080C6C
:1025700023E0D1F80C8008F10C0C1EE000BF00BF76
:1025800000BF00BF00BF00BFD1F80880B8F1000F46
:1025900002D14FF0040C0BE0D1F80880B8F1010F24
:1025A00003D14FF0080C146102E04FF0080C5461A5
:1025B00003E04FF0000C00E000BF00BFFF2801D88F
:1025C000904601E002F104084646FF2802D84FEA8F
:1025D000830803E0A3F108084FEA88084746D6F8C5
:1025E00000804FF00F0909FA07F928EA09080CFAE8
:1025F00007F900E07AE048EA0908C6F80080D1F857
:10260000048008F08058B8F1805F6FD100BFDFF818
:10261000E481D8F8188048F00108DFF8D891C9F8AB
:102620001880C846D8F8188008F00108CDF8008056
:1026300000BF00BF4FEAB9384FEA930958F8295054
:102640004FEA83784FEA18794FF00F0808FA09F833
:1026500025EA0805DFF8A081424502D14FF00008C5
:1026600024E0DFF89881424502D14FF001081DE0D7
:10267000DFF88C81424502D14FF0020816E0DFF806
:102680008481424502D14FF003080FE0DFF87881E2
:10269000424502D14FF0040808E0DFF8708142455E
:1026A00002D14FF0050801E04FF006084FEA8379A8
:1026B0004FEA197908FA09F848EA0505DFF8508168
:1026C0004FEA930948F82950D1F8048008F480387B
:1026D000B8F5803F0BD1DFF83C81D8F8008048EA9C
:1026E0000008DFF83091C9F800800AE075E0DFF8F3
:1026F0002481D8F8008028EA0008DFF81891C9F88A
:102700000080D1F8048008F40038B8F5003F0ED1FD
:10271000DFF8008108F10408D8F8008048EA0008D2
:10272000DFF8F09009F10409C9F800800DE0DFF846
:10273000E48008F10408D8F8008028EA0008DFF8EF
:10274000D49009F10409C9F80080D1F8048008F494
:102750008018B8F5801F0ED1DFF8B88008F108089E
:10276000D8F8008048EA0008DFF8A89009F10809C5
:10277000C9F800800DE0DFF89C8008F10808D8F85F
:10278000008028EA0008DFF88C9009F10809C9F8F0
:102790000080D1F8048008F40018B8F5001F0ED1AD
:1027A000DFF8708008F10C08D8F8008048EA0008CB
:1027B000DFF8609009F10C09C9F800800DE0DFF83E
:1027C000548008F10C08D8F8008028EA0008DFF8E7
:1027D000449009F10C09C9F800805B1CD1F8008015
:1027E00028FA03F8B8F1000F7FF47CAEBDE8F88753
:1027F000000011100010024000080140000C0140D0
:10280000001001400014014000180140001C01406C
:102810000800014000040140024693680B400BB1E0
:10282000012000E00020704710B5C26821EA0203D1
:1028300002EA010443EA0443036110BD0AB10161E5
:1028400001E00B0403617047014800687047000015
:102850002C00002003480068034909780844014916
:10286000086070472C0000203400002010B5084894
:10287000006840F0100006490860052000F080F86C
:102880000F2000F007F800F02BF8002010BD00002A
:102890000020024070B504460E4800784FF47A716B
:1028A000B1FBF0F00C490968B1FBF0F5284600F0E7
:1028B00083FE08B1012070BD102C07D200222146F2
:1028C000501E00F01EF80548046001E00120F2E708
:1028D0000020F0E7340000201C0000203000002021
:1028E000704701460846002809DB00F01F0301225B
:1028F0009A4043099B0003F1E023C3F8002100BF85
:1029000070472DE9F05F80460D461646002701F01E
:10291000E5FB074639462A46334601F00700C0F179
:10292000070ABAF1040F02D94FF0040A01E0C0F11E
:10293000070AD14600F1040ABAF1070F02D24FF09C
:10294000000A01E0A0F1030AD4464FF0010A0AFA96
:1029500009FAAAF1010A0AEA020A0AFA0CFA4FF085
:10296000010B0BFA0CFBABF1010B0BEA030B4AEA70
:102970000B042146404601F0B9FBBDE8F09F000082
:1029800000BF00F00702064B19684FF6FF0319401D
:10299000044B0B4343EA0221014B196000BF70470F
:1029A0000CED00E00000FA050120014908627047C3
:1029B00000000E422DE9F04385B0064642A30FCB3E
:1029C00001AC0FC444A0006800904FF0000800253F
:1029D00000270024A146042E36D004DC012E3BD073
:1029E000022E6BD15FE0082E32D0102E66D13B480C
:1029F0004468006800F0807000B301A8C4F383410C
:102A0000475C04F4803070B134484068C0F3404003
:102A10001DF8008004F4803040B13148B0FBF8F07C
:102A200000FB07F502E02F4807FB00F52B48406844
:102A300000F48000B0F5800F01D1A94603E06800E2
:102A40000321B0FBF1F93AE000F0D2F9814636E01B
:102A500000F0CEF9814632E02048046A04F4407068
:102A6000B0F5807F05D104F0020010B14FF40049A9
:102A700018E004F44070B0F5007F07D11748406AB1
:102A800000F0020010B149F640490BE004F4407038
:102A9000B0F5407F06D11148006800F4003008B15D
:102AA0004FF224490BE000F093F90C494968C1F357
:102AB0008131491C4900B0FBF1F900E000BF00BFC3
:102AC000484605B0BDE8F08302030405060708097F
:102AD0000A0B0C0D0E0F1010010200000010024036
:102AE00000127A0000093D00F8B5044600260025D2
:102AF000207800F0010000286BD000274348C0690F
:102B000000F0805070B900BF4048C06940F080506C
:102B10003E49C8610846C06900F08050009000BF7F
:102B200000BF01273A48006800F48070B0B9384807
:102B3000006840F4807036490860FFF785FE06465D
:102B400006E0FFF781FE801B642801D90320F8BD51
:102B50002F48006800F480700028F2D02B48006AEB
:102B600000F440752DB3A08800F44070A84220D036
:102B70002648006A20F4407501202649086000209C
:102B800008602248056205F0010090B1FFF75CFE85
:102B9000064608E0FFF758FE801B41F28831884264
:102BA00001D90320D3E71948006A00F00200002889
:102BB000F0D01648006A20F4407061680843134959
:102BC0000862012F04D10846C06920F08050C86116
:102BD00000BF207800F00200022807D10B484068AF
:102BE00020F44040A168084308494860207800F07C
:102BF0001000102807D10548406820F48000616962
:102C00000843024948600020A1E70000001002408C
:102C1000007000404004424270B504460D460CB9B5
:102C2000012070BD5A48006800F00700A8420ED28B
:102C30005748006820F007002843554908600846B7
:102C4000006800F00700A84201D00120E9E72078E1
:102C500000F0020002281DD1207800F004000428B2
:102C600005D14C48406840F4E0604A49486020780B
:102C700000F00800082805D14648406840F460503C
:102C8000444948604348406820F0F000A168084388
:102C900040494860207800F0010078B3606801285E
:102CA00006D13C48006800F4003090B90120B8E734
:102CB0006068022806D13748006800F0007040B90B
:102CC0000120AEE73348006800F0020008B9012097
:102CD000A7E73048406820F00300616808432D49A9
:102CE0004860FFF7B1FD064609E0FFF7ADFD801B28
:102CF00041F28831884202D9032092E707E0254853
:102D0000406800F00C006168B0EB810FEDD1204805
:102D1000006800F00700A8420ED91D48006820F0A6
:102D2000070028431A4908600846006800F00700B9
:102D3000A84201D0012074E7207800F004000428A4
:102D400007D11448406820F4E060E1680843114965
:102D50004860207800F00800082808D10D48406835
:102D600020F46050216940EAC1000A49486000F03F
:102D70003FF808494968C1F30311074A515CC8404C
:102D80000649086006480068FFF784FD002048E710
:102D900000200240001002402EA400081C00002069
:102DA0003000002001480068704700001C0000202F
:102DB00000B5FFF7F7FF04494968C1F30221034A50
:102DC000515CC84000BD0000001002403EA4000855
:102DD00000B5FFF7E7FF04494968C1F3C221034A80
:102DE000515CC84000BD0000001002403EA4000835
:102DF000F0B585B00FF26C0C9CE8E01001A8A0E8DB
:102E0000E0101CA52D68009500210022002300245D
:102E10000020194D696801F00C05F5B1042D02D0B0
:102E2000082D19D101E0154819E001ADC1F3834621
:102E3000AC5D01F4803555B10F4D6D68C5F340456B
:102E40001DF805200D4D6543B5FBF2F302E00C4D76
:102E500004FB05F3184602E000BF084800BF00BFAE
:102E600005B0F0BD02030405060708090A0B0C0DA6
:102E70000E0F1010010200000010024000127A0034
:102E800000093D00F8B504460CB90120F8BD2078D2
:102E900000F00100002878D0F848406800F00C00ED
:102EA00004280CD0F548406800F00C00082811D127
:102EB000F248406800F48030B0F5803F0AD1EF4816
:102EC000006800F4003000285FD0606800285CD102
:102ED0000120DBE700BF6068B0F5803F06D1E7481E
:102EE000006840F48030E549086028E0606858B91F
:102EF000E248006820F48030E04908600846006835
:102F000020F4802008601AE06068B0F5A02F0BD193
:102F1000DA48006840F48020D84908600846006814
:102F200040F4803008600AE0D448006820F4803023
:102F3000D24908600846006820F48020086000BF7D
:102F4000606888B1FFF780FC054606E0FFF77CFC6F
:102F5000401B642801D9032098E7C848006800F4A2
:102F600000300028F2D010E0FFF76EFC054606E0C6
:102F7000FFF76AFC401B642801D9032086E7BF489D
:102F8000006800F400300028F2D1207800F0020040
:102F9000022857D1B948406800F00C0050B1B7483A
:102FA000406800F00C00082818D1B448406800F4CC
:102FB000803098B9B148006800F0020020B1206963
:102FC000012801D0012061E7AC48006820F0F8003A
:102FD000616940EAC100A949086033E02069E8B1AD
:102FE0000120A7490860FFF72FFC054606E0FFF720
:102FF0002BFC401B022801D9032047E79F480068AB
:1030000000F002000028F2D09C48006820F0F80090
:10301000616940EAC1009949086013E000209849BD
:103020000860FFF711FC054606E0FFF70DFC401BAA
:10303000022801D9032029E79048006800F0020027
:103040000028F2D1207800F0080008282DD1A069CE
:10305000B8B101208B490860FFF7F6FB054606E092
:10306000FFF7F2FB401B022801D903200EE783483B
:10307000406A00F002000028F2D0012000F048FE73
:1030800013E000207F490860FFF7DEFB054606E0FD
:10309000FFF7DAFB401B022801D90320F6E6774848
:1030A000406A00F002000028F2D1207800F004000D
:1030B000042873D100277148C06900F0805070B9AE
:1030C00000BF6E48C06940F080506C49C861084636
:1030D000C06900F08050009000BF00BF01276A481F
:1030E000006800F48070B0B96748006840F48070F0
:1030F00065490860FFF7A8FB054606E0FFF7A4FB5B
:10310000401B642801D90320C0E65F48006800F432
:1031100080700028F2D000BFE068012806D157482F
:10312000006A40F001005549086227E0E06858B99C
:103130005248006A20F00100504908620846006ABF
:1031400020F00400086219E0E06805280BD14B4824
:10315000006A40F00400494908620846006A40F0ED
:10316000010008620AE04548006A20F00100434976
:1031700008620846006A20F00400086200BFE068A8
:10318000A0B1FFF761FB054609E0FFF75DFB401BBF
:1031900041F28831884202D9032077E622E037489D
:1031A000006A00F002000028EFD012E0FFF74CFBAD
:1031B000054608E0FFF748FB401B41F28831884292
:1031C00001D9032062E62D48006A00F002000028C1
:1031D000F0D1012F05D12948C06920F0805027493E
:1031E000C86100BFE069C8B32448406800F00C0023
:1031F000082860D0E069022848D1002020490866EC
:10320000FFF722FB054606E0FFF71EFB401B0228E6
:1032100001D903203AE61948006800F00070002840
:10322000F2D1206AB0F5803F07D11448406820F4FD
:103230000030A168084311494860D4E908010843F7
:103240000E49496821F4741108430C494860012073
:103250000B490866FFF7F8FA054607E03DE0FFF77F
:10326000F3FA401B022801D903200FE60348006847
:1032700000F000700028F2D02FE0000000100240A3
:103280000000424280044242007000400020144985
:103290000866FFF7D9FA054606E0FFF7D5FA401BA6
:1032A000022801D90320F1E50E48006800F0007003
:1032B0000028F2D111E0E069012800D1E6E50948D3
:1032C000466806F48031206A814204D106F4701108
:1032D000606A814201D00120D8E50020D6E50000D7
:1032E000000042420010024010B5034600220020B8
:1032F000024A02EB81021468A0B210BD006C0040CB
:1033000010B503460020034800EB810094B204602E
:1033100010BD0000006C004070B5044600250CB9DB
:10332000012070BD607C20B900202074204600F090
:103330005BF802206074204600F0A2F818B1042067
:1033400060740120EDE7204600F0F6FC18B104207F
:1033500060740120E5E72068406820F007002168DC
:103360004860A06828B11F48006820F001001D498E
:1033700008601C48001F006820F46070A1680843C2
:103380001849091F08606068401C08B1656809E0B9
:103390000120FFF70FFB05461DB9042060740120D2
:1033A000BFE76D1E2068806820F00F0040EA1540DE
:1033B000216888602068C06865F30F002168C860D4
:1033C000204600F0D6FC18B1042060740120A8E764
:1033D0000021E17301216173A17301206074002059
:1033E0009FE70000306C004030B591B00546C8241E
:1033F0000120214908602148006A40F001001F496E
:10340000086204E0601E84B2052000F0E7FF2CB1E2
:103410001A48006A00F002000028F3D0ACB9082076
:10342000079001200A9000200E9007A8FFF72AFDC0
:10343000012001904002029001A8FFF755FB45F2E0
:103440005101002005F0C8FD14E004200790012080
:103450000A9000200E9007A8FFF714FD01200190AC
:103460000002029001A8FFF73FFB45F25001002047
:1034700005F0B2FD11B030BD3C04424200100240E4
:1034800070B5044600250CB9012070BD2068406865
:1034900020F0080021684860FFF7D6F9054607E0EC
:1034A000FFF7D2F9401BB0F57A7F01D90320ECE792
:1034B0002068406800F008000028F1D00020E4E710
:1034C00070B504460E4615461CB1A069B0F5807F64
:1034D00001D1012070BD94F8410028B9002084F882
:1034E0004000204600F020F804F108012068FEF7B3
:1034F0001FFA3146A2682068FEF756FA2946236B68
:10350000D4E90102FEF7F2F9A168206850F8210021
:1035100040F00100A268216841F82200012084F8EF
:1035200041000020D6E7000010B586B0044600BF79
:103530001E48406940F480701C4948610846406953
:1035400000F48070019000BF00BF00BF0846806992
:1035500040F0200088610846806900F0200001905A
:1035600000BF00BF00BF0846806940F0400088618E
:103570000846806900F04000019000BF00BF4CF297
:103580000370029002200390012004900320059014
:1035900002A90748FEF7A0FF4FF68070029002A92B
:1035A0000448FEF799FF06B010BD0000001002406D
:1035B000001401400018014070B504462546681EFD
:1035C000B0F1807F01D301200FE0681E4FF0E021B1
:1035D00048610F214FF0FF3000F088FD00204FF0D0
:1035E000E021886107200861002070BD704700005D
:1035F0002DE9F0470446206805682068C668206801
:1036000047694FF00008C14605F00F08B8F1000FF8
:103610000AD105F0200038B106F0200020B1204684
:1036200000F040FCBDE8F087B8F1000F71D007F062
:10363000010018B906F4907000286AD005F0010066
:1036400030B106F4807018B1E06B40F00100E06327
:1036500005F0040030B107F0010018B1E06B40F054
:103660000200E06305F0020030B107F0010018B17C
:10367000E06B40F00400E06305F0080048B106F09C
:10368000200010B907F0010018B1E06B40F008000D
:10369000E063E06B68B305F0200028B106F020007D
:1036A00010B1204600F0FEFB20684069C0F380198D
:1036B000E06B00F0080010B9B9F1000F22D02046ED
:1036C00000F0D0FB2068406900F04000B0B12068F5
:1036D000406920F0400021684861606B50B1184893
:1036E000616B4863606BFEF729FC10B1606B416B46
:1036F00088470CE02046FFF779FF08E02046FFF7F7
:1037000075FF04E02046FFF771FF0020E06389E7C2
:10371000FFE705F0800030B106F0800018B12046C8
:1037200000F08EFC7EE705F0400030B106F040006E
:1037300018B1204600F0A6FB74E700BF72E7000056
:10374000513E000810B504460CB9012010BDA06917
:1037500000B100E000BF94F8390028B9002084F8D7
:103760003800204600F028F8242084F8390020682A
:10377000C06820F400502168C860204600F0E2FBD9
:103780002068006920F49040216808612068406941
:1037900020F02A00216848612068C06840F4005089
:1037A0002168C8600020E063202084F8390084F894
:1037B0003A000020CAE7000010B586B00446284948
:1037C000206888424AD100BF00BF2648806940F087
:1037D0000400244988610846806900F004000190D3
:1037E00000BF00BF00BF00BF00BF0846806940F0B7
:1037F000040088610846806900F00400019000BF61
:1038000000BF00BF00BF00BF0846806940F4804091
:1038100088610846806900F48040019000BF00BFC5
:1038200000BF48150290022003900120049003205D
:10383000059002A90C48FEF74FFE4FF480600290FD
:103840000020039002A90848FEF746FE2520FFF756
:1038500048F8032211462520FFF753F806B010BDA3
:1038600000380140001002400008014010B5034636
:1038700093F83A0020282FD101B10AB9012010BDD8
:1038800000BF93F83800012801D10220F7E701209A
:1038900083F8380000BF99629A85DA850020D863E2
:1038A000222083F83A0000BF002083F8380000BFD0
:1038B0001868C06840F480701C68E060186840694F
:1038C00040F001001C6860611868C06840F020008A
:1038D0001C68E0600020D2E70220D0E710B5044663
:1038E0002049206888423BD11F48008800F40040EE
:1038F00088BB1D48008800F4804070B11B480078E8
:103900000A2803D000201849088024E016480088BF
:1039100040F40040144908801DE0144800780D2848
:1039200006D11148008840F480400F49088012E019
:103930000E4800780C490988C1F30D010C4A505417
:1039400009480088401C0849088008460088C728A4
:1039500001DD00200880012204490648FFF786FFA8
:1039600010BD000000380140280000202A0000207F
:103970008C00002054010020704700BFFEE70000CB
:10398000F0B505460B4600240020002107E002FBAD
:103990000136094F37F8166034444E1CF1B21E262A
:1039A00096FBF2F68E42F2DC1E2696FBF2F6B4FB94
:1039B000F6F6B0B2F0BD0000500000202DE9F74F40
:1039C00096B000201590149016A807C800F0AEF825
:1039D000159000224FF080431046424904F02CFC21
:1039E00004464FF06632404B05F06AFECDE90E0109
:1039F000159806F075F904463C4A3D4B05F060FE0B
:103A0000CDE90A01159806F06BF9064600224FF041
:103A1000804304F011FC04460022364B05F050FEB2
:103A2000CDE90601159806F05BF906460022324BF7
:103A300004F002FC0446314A314B05F041FECDE969
:103A40000201159806F04CF9064600222D4B04F0B1
:103A5000F3FB0446294A2C4B05F032FE804689468A
:103A6000159806F03DF906460022284B04F0E4FBC9
:103A700004460022264B05F023FE824642464B4672
:103A800006F044F8CDE90001DDE9022305F070FB02
:103A9000CDE90401DDE9062306F038F8CDE9080197
:103AA000DDE90A2305F064FBCDE90C01DDE90E2315
:103AB00006F02CF8174A184BCDE9100106F026F84D
:103AC000CDE9120105F022FB1490149806F008F9D4
:103AD000044622460B4611A0FCF7B0FB149819B01F
:103AE000BDE8F08F0000F03F66C898409A99999918
:103AF000197CB940005BC44000000840CDCCCCCC60
:103B00004C98BF4000001040CCD2A74000001440A9
:103B100000247C40560E2DB29DEFEF3F4D513133C6
:103B2000365F70706D3A2025660D0A002DE9F84F5A
:103B30000446894692464FF0000B00200090524602
:103B400049462046FFF71CFF8346052000F046FC4F
:103B5000584605F065FD07460022054B05F0B0FD0F
:103B6000054605F0D3FA00900098BDE8F88F0000F4
:103B70000000543F2DE9F74F82B002A807C8FDF7B7
:103B8000CDFD0190019806F0ABF8804600220F4B66
:103B900005F0BCFF06460E4A0E4B05F0A5FB044699
:103BA00000220D4B05F08CFD824605F0AFFA009027
:103BB000009806F095F8044622460B4607A0FCF74D
:103BC0003DFB009805B0BDE8F08F00000000E03F2D
:103BD0009A9999999999B93F000069404D51345F7C
:103BE00070706D203A2025660D0A00002DE9F74F10
:103BF00084B082468B46002003900290594650467E
:103C0000069AFDF7EFFD064659465046069AFDF71F
:103C1000E9FD0746194906F010FB0546314606F056
:103C2000F9F80446164906F00BFA0390039800F0E1
:103C300037F814480168039806F0ECF8019006F094
:103C40004FF880464FF040420F4B04F0F5FA06461D
:103C50004FF020420D4B05F033FD044605F056FAB7
:103C60000290029806F03CF8044622460B4608A053
:103C7000FCF7E4FA029807B0BDE8F08F3333534005
:103C80000000204144000020F753F7BF9B945840A8
:103C90004D51375F70706D203D2025660D0A000084
:103CA0002DE9F04782464FF06042104B4FF08040C4
:103CB0000F4904F0C1FA06460F46504606F010F8C8
:103CC000804632463B4605F00FFB044605F01EFADF
:103CD000084908600846006806F002F804462246D3
:103CE0000B4605A0FCF7AAFABDE8F087A7F2E5BFEE
:103CF0007209BA3F440000204D51375F52303A20DC
:103D000025660D0A0000000000BFFEE770477047FF
:103D100008B508490968C9084FF47A72B1FBF2F195
:103D20004143009100BF00BF00994A1E0092002944
:103D3000F9D108BD1C00002070B504460025FEF72F
:103D400083FD054607E0FEF77FFD401BB0F57A7F57
:103D500001D9032070BD2068406800F020000028D1
:103D6000F1D02068406840F01000216848600020D1
:103D7000F0E770B5044600252068406820F0100088
:103D800021684860FEF760FD054607E0FEF75CFD30
:103D9000401BB0F57A7F01D9032070BD20684068D0
:103DA00000F020000028F1D00020F6E70EB51B48F7
:103DB0000068406800F0010030B104F07FFF6FF050
:103DC0000100164909684860144800684068C0F35B
:103DD0004000A0B16FF00200104909684860104827
:103DE00080780F4949780E4A1278CDE90021029077
:103DF0000B48C379827981880AA0FCF71FFA6FF01B
:103E0000040006490968486000BF0448006840682B
:103E1000C0F340100028F8D00EBD00006002002062
:103E200074020020416C61726D2054696D653A2501
:103E3000642D25642D25642025643A25643A256483
:103E40000A000000704710B5FEF704FD10BD704772
:103E500070B505466C6A0020E085E0842046FFF7D7
:103E6000C5FB70BD0168C96821F490710268D1601A
:103E70000168496921F0010102685161202180F83F
:103E80003A10704710B504462068C06820F0400022
:103E90002168C860202084F839002046FFF76CFDB7
:103EA000002010BD70B5044694F83A00222847D18E
:103EB000A068B0F5805F0CD1206950B90025A66AD2
:103EC00020684068C0F308003080A06A801CA062AF
:103ED00015E0A56A0026A068B0F5805F03D0A06851
:103EE00028B9206918B920684068287004E0206863
:103EF000406800F07F002870A06A401CA062E08D3E
:103F0000401E80B2E085C8B92068C06820F020005B
:103F10002168C8602068C06820F480702168C8608B
:103F20002068406920F0010021684861202084F861
:103F30003A002046FFF7D2FC002070BD0020FCE7CD
:103F40000220FAE770B504462168096921F440515E
:103F5000E2681143226811612269A1681143626914
:103F600041EA02052168C96841F20C629143294384
:103F70002268D1602168496921F44071A269114326
:103F8000226851612D4A2168914202D1FEF720FF3B
:103F900001E0FEF70DFF00EBC00101EB00116268CC
:103FA0009200B1FBF2F100EBC00202EB0012636879
:103FB0009B00B2FBF3F26423B2FBF3F202EBC20309
:103FC00003EB0212A1EB8201322202EB0111642207
:103FD000B1FBF2F101F0F00100EBC00202EB0012C4
:103FE00063689B00B2FBF3F26423B2FBF3F201EBD4
:103FF000021200EBC00101EB001163689B00B1FBF2
:10400000F3F100EBC00303EB00136668B600B3FBEB
:10401000F6F36426B3FBF6F303EBC30606EB0313D8
:10402000A1EB8301322303EB01116423B1FBF3F114
:1040300001F00F0111442268916070BD0038014009
:10404000014691F83900212828D18868B0F5805FB1
:104050000BD1086948B90A6A1088C0F308000B68D8
:104060005860086A801C086205E00B6A581C0862E8
:1040700018780B685860C88C401E80B2C88458B944
:104080000868C06820F080000B68D8600868C068C5
:1040900040F040000B68D860002070470220FCE729
:1040A00010B50248FFF7A4FA10BD0000540100202B
:1040B00000BFFEE7490050EAC12018BF04204A0DA6
:1040C00018BF40F0010040F2FF72B2EB515F08BF31
:1040D00040F00200012808BF052070470248006830
:1040E000C0F30220704700000CED00E010B500287E
:1040F00004DB0A07130E054A135406E00A07140EE0
:10410000034A00F00F031B1FD45410BD00E400E06D
:1041100018ED00E02DE9F0414F1E00EBC701044609
:10412000D1E9000115461E4637F006020DD02A4699
:10413000334605F0C5FA7F1E04EBC703D3E900231D
:1041400005F016F837F00602F1D1022F25D0042F22
:1041500013D0062F18BFBDE8F0812A46334605F07C
:10416000AFFAD4E90A2305F003F82A46334605F0EE
:10417000A7FAD4E9082304F0FBFF2A46334605F0EA
:104180009FFAD4E9062304F0F3FF2A46334605F0EC
:1041900097FAD4E9042304F0EBFF2A46334605F0EE
:1041A0008FFAD4E9022304F0E3FF2A46334605F0F0
:1041B00087FAD4E90023BDE8F04104F0D9BF00003C
:1041C000002213461046014905F08EB80000F03F6A
:1041D00004F0CEBF002213461046114605F084B805
:1041E00040F2013200204FF0E04106F0DAB8000062
:1041F000024A0020110706F0D4B8000001FDFFFFBD
:1042000030380A2801D2012070470020704700BFD3
:10421000704700001249096821F00101104A11603D
:104220001049896821F001010E4A916000BF0D49D3
:10423000896801F001010029F9D10A49C86089683B
:1042400041F00101074A91600549096841F0010107
:10425000034A11601146096841F4800111607047FA
:10426000082401400000024001B58EB0182104A8C6
:10427000FCF758F9002001900290039000BF00BFA6
:104280004D48806940F400704B4988610846806958
:1042900000F40070009000BF00BF00BF00BF0846E0
:1042A000806940F0040088610846806900F00400DD
:1042B000009000BF00BF00BF0846406940F0010009
:1042C00048610846406900F00100009000BF00BF4F
:1042D000022004908003069004A8FEF705FC6220EB
:1042E0000A9003200B900AA93448FEF7F5F83448E9
:1042F00034490860002048600021324881608021F4
:10430000C1604900016189004161002181614FF470
:104310008051C161FDF7E6FE00BF2A482A490862C4
:1043200008462849486200BF2848274908600020FD
:1043300048604FF48071244881600121017303219A
:1043400001610021017581614FF46021C161FDF7B8
:1043500083FC1D48FDF74AFB0120019002900720D5
:10436000039001A91848FDF7C3FB05200190022026
:10437000029001A91448FDF7BBFB06200190032021
:10438000029001A91048FDF7B3FB032211460B2050
:10439000FEF7B7FA0B20FEF7A4FA00230B494C31C5
:1043A00008480E9AFDF7E4FE00220EA90648FDF724
:1043B00005FD0FB000BD00000010024000080140E4
:1043C00008000240EC0100203002002000240140DF
:1043D00001490860704700002000002010B5044625
:1043E0004FF47A7104FB01F000F002F810BD0000F8
:1043F00070B5034600224FF0E02675690D4E366811
:1044000003FB06F44FF0E026B16910E04FF0E02620
:10441000B06988420BD0884202D20E1A324402E0C0
:104420002E1A0E4432440146A24200D300E0EDE7CA
:1044300000BF70BD2000002070B50024002504E0FE
:10444000601CC4B20120FFF7D3FF4FF400610F4896
:10445000FEF7E2F908B1642CF2DB642C01DB0125E4
:1044600011E0002404E0601CC4B20120FFF7C0FF8B
:104470004FF400610548FEF7CFF908B9642CF2DB70
:10448000642C00DB0125284670BD0000002001409F
:1044900000B585B000BF00BF0F48806940F4807050
:1044A0000D4988610846806900F48070009000BF63
:1044B00000BF00BFC814019011200290012003909A
:1044C0000320049001A90548FEF706F800F072F8F1
:1044D000FFF7B2FF05B000BD001002400020014010
:1044E00010B5002404E0601CC4B20120FFF780FF77
:1044F0004FF400611048FEF78FF908B1642CF2DB2D
:10450000002404E0601CC4B20120FFF771FF4FF4E7
:1045100000610948FEF780F908B9642CF2DB282015
:10452000FFF766FF4FF400610348FEF775F908B125
:10453000012010BD0020FCE70020014070B50024E0
:10454000002506E06006040EFFF7CAFF0443681C5E
:10455000C5B2082DF6DB204670BD7CB505460E467B
:1045600000F028F8FFF768FFF8B9002405E0FFF72E
:10457000E5FF0DF80400601CC4B2052CF7DB9DF8C4
:1045800000009DF8011008449DF8021008449DF8B1
:10459000031008449DF80410884208D19DF80000DB
:1045A00030709DF80200287001E001207CBD0020E1
:1045B000FCE7000010B500BF00224FF4006109487D
:1045C000FEF73CF900BF1420FFF708FF00BF0122EF
:1045D000D1020448FEF732F900BF1E20FFF708FFA2
:1045E00010BD00000020014000B585B000BF00BF35
:1045F0003148806940F040002F4988610846806951
:1046000000F04000009000BF00BF00BF00BF00BF2F
:104610000846806940F0400088610846806900F0E3
:104620004000009000BF00BF00BF00BF00BF0846B1
:10463000806940F0040088610846806900F0040049
:10464000009000BF00BF00BF102001901B480290E7
:104650000120039001A91A48FDF73EFF08200190B0
:10466000164802900120039001A91548FDF734FF78
:1046700001200190134802900220039001A91248E2
:10468000FDF72AFF022200210A20FEF73AF90A204C
:10469000FEF727F9022201210920FEF732F909204D
:1046A000FEF71FF9022211460620FEF72AF906201E
:1046B000FEF717F905B000BD001002400000211000
:1046C00000180140000011100008014000BF054A19
:1046D000126802F04002002AF9D0C2B2014B1B1D41
:1046E0001A6070470038014070B50446002514B1C7
:1046F0000120224908702148007848B31021204841
:10470000FEF78AF850B108211D48FEF785F828B158
:1047100001211C48FEF780F8012819D14620FFF737
:104720005DFE00201549087010211548FEF774F849
:1047300000B9012508211248FEF76EF800B90225DC
:1047400001211048FEF768F8012815D1032513E070
:1047500010210B48FEF760F801280DD10821084808
:10476000FEF75AF8012807D101210648FEF754F850
:1047700010B9012001490870284670BD4C00002086
:10478000001801400008014070B5044600260948A1
:104790000588408845430021084603F08BF803F064
:1047A0007DFA00BF02E004480480761CAE42FAD3D2
:1047B00070BD0000DC0100200008006C10B504464C
:1047C00058488471002C58D1F020564908804FF485
:1047D000A07048800846808845F21051884210D168
:1047E0004FF430504F4908814FF4285048814FF41E
:1047F0002C5088814FF4F07008804FF44870488046
:104800001AE04848808841F6631188420DD12C2077
:10481000444908812B2048812A2088814FF4F07078
:1048200008804FF44870488006E02C203D490881FC
:104830002A2048812B2088813A48808845F210310F
:10484000884205D03748808847F29671884206D161
:104850004FF4A070334908804FF4F070488031481D
:10486000808849F60601884258D14FF4F0702D49EE
:1048700008804FF44870488050E04FF4A0702949F8
:104880000880F02048800846808845F21051884210
:1048900010D14FF43050234908814FF428504881FB
:1048A0004FF42C5088814FF4487008804FF4F0701A
:1048B000488020E01B48808841F66311884205D07B
:1048C0001848808849F6060188420DD12C201549E8
:1048D00008812A2048812B2088814FF44870088065
:1048E0004FF4F070488006E02C200E4908812A2001
:1048F00048812B2088810B48808845F210318842FE
:1049000005D00848808847F29671884206D14FF456
:10491000F070044908804FF4A0704880002002F035
:10492000ABFE10BDDC01002070B505460E461446F6
:104930003146284602F0BEFF03F0B0F901490C8071
:1049400070BD00000008006C10B5CF2003F09AF98C
:10495000002003F08BF9C12003F088F9302003F028
:1049600085F9ED2003F08EF9642003F07FF9032030
:1049700003F07CF9122003F079F9812003F076F935
:10498000E82003F07FF9852003F070F9102003F090
:104990006DF97A2003F06AF9CB2003F073F939201E
:1049A00003F064F92C2003F061F9002003F05EF9B4
:1049B000342003F05BF9022003F058F9F72003F0EC
:1049C00061F9202003F052F9EA2003F05BF900209E
:1049D00003F04CF9002003F049F9C02003F052F92C
:1049E0001B2003F043F9C12003F04CF9012003F030
:1049F0003DF9C52003F046F9302003F037F93020A7
:104A000003F034F9C72003F03DF9B72003F02EF985
:104A1000362003F037F9482003F028F93A2003F054
:104A200031F9552003F022F9B12003F02BF90020D1
:104A300003F01CF91A2003F019F9B62003F022F94B
:104A40000A2003F013F9A22003F010F9F22003F07A
:104A500019F9002003F00AF9262003F013F90120C8
:104A600003F004F9E02003F00DF90F2003F0FEF845
:104A70002A2003F0FBF8282003F0F8F8082003F0C0
:104A8000F5F80E2003F0F2F8082003F0EFF85420B8
:104A900003F0ECF8A92003F0E9F8432003F0E6F86E
:104AA0000A2003F0E3F80F2003F0E0F8002003F001
:104AB000DDF8002003F0DAF8002003F0D7F800203A
:104AC00003F0D4F8E12003F0DDF8002003F0CEF885
:104AD000152003F0CBF8172003F0C8F8072003F0E7
:104AE000C5F8112003F0C2F8062003F0BFF82B2010
:104AF00003F0BCF8562003F0B9F83C2003F0B6F8F8
:104B0000052003F0B3F8102003F0B0F80F2003F0F5
:104B1000ADF83F2003F0AAF83F2003F0A7F80F20DC
:104B200003F0A4F82B2003F0ADF8002003F09EF86A
:104B3000002003F09BF8012003F098F83F2003F0D9
:104B400095F82A2003F09EF8002003F08FF800204B
:104B500003F08CF8002003F089F8EF2003F086F8CA
:104B6000112003F08FF87820FFF738FC292003F09C
:104B700089F810BD10B5FF2003F084F8FF2003F082
:104B800075F8982003F072F8062003F06FF8BC2047
:104B900003F078F8012003F069F80F2003F066F8BD
:104BA000612003F063F8FF2003F060F8012003F0B8
:104BB0005DF8012003F05AF80B2003F057F810209D
:104BC00003F054F8372003F051F8632003F04EF857
:104BD000FF2003F04BF8FF2003F048F8012003F01A
:104BE00045F8012003F042F8002003F03FF80020D0
:104BF00003F03CF8FF2003F039F8522003F036F8B8
:104C0000012003F033F8002003F030F8402003F0D7
:104C10002DF8BD2003F036F8012003F027F82320FB
:104C200003F024F8452003F021F8672003F01EF874
:104C3000012003F01BF8232003F018F8452003F0AF
:104C400015F8672003F012F8BE2003F01BF80020CF
:104C500003F00CF8012003F009F8AB2003F006F88C
:104C6000602003F003F8222003F000F8222002F075
:104C7000FDFF222002F0FAFF222002F0F7FF22209F
:104C800002F0F4FFC72002F0FDFF362002F0EEFF35
:104C9000ED2002F0F7FF7F2002F0E8FF0F2002F086
:104CA000E5FFC02002F0EEFF0F2002F0DFFF0B2037
:104CB00002F0DCFF0A2002F0D9FFFC2002F0E2FF44
:104CC000082002F0D3FFDF2002F0DCFF002002F01A
:104CD000CDFF002002F0CAFF002002F0C7FF002035
:104CE00002F0C4FF002002F0C1FF202002F0BEFF4E
:104CF000F32002F0C7FF742002F0B8FFB42002F0E6
:104D0000C1FF002002F0B2FF002002F0AFFF002040
:104D100002F0ACFFF72002F0B5FF822002F0A6FF00
:104D2000B12002F0AFFF002002F0A0FF132002F03C
:104D30009DFF132002F09AFFF22002F0A3FF8020D3
:104D400002F094FF042002F091FF402002F08EFF59
:104D5000282002F08BFFC12002F094FF172002F000
:104D600085FF882002F082FF882002F07FFF20204C
:104D700002F07CFFE02002F085FF002002F076FFC9
:104D80000A2002F073FF122002F070FF102002F0E0
:104D90006DFF0E2002F06AFF202002F067FFCC209A
:104DA00002F064FF072002F061FF062002F05EFFC0
:104DB0000B2002F05BFF0E2002F058FF0F2002F0E4
:104DC00055FF0D2002F052FF152002F04FFF10207A
:104DD00002F04CFF002002F049FFE12002F052FFF8
:104DE000002002F043FF0B2002F040FF132002F0EE
:104DF0003DFF0D2002F03AFF0E2002F037FF1B208E
:104E000002F034FF712002F031FF062002F02EFF85
:104E1000062002F02BFF0A2002F028FF0F2002F0EC
:104E200025FF0E2002F022FF0F2002F01FFF1520A9
:104E300002F01CFF0C2002F019FF002002F016FF08
:104E40002A2002F01FFF002002F010FF002002F0D5
:104E50000DFF012002F00AFFDF2002F007FF2B20E8
:104E600002F010FF002002F001FF002002F0FEFE21
:104E7000032002F0FBFE1F2002F0F8FE3A2002F0B1
:104E800001FF552002F0F2FE362002F0FBFE00206A
:104E900002F0ECFE112002F0F5FE7820FFF79EFAFA
:104EA000292002F0EFFE1420FFF798FA2C2002F0E0
:104EB000E9FE10BD10B5ED2002F0E4FE012002F085
:104EC000D5FEFE2002F0D2FEEE2002F0DBFEDE2058
:104ED00002F0CCFE212002F0C9FEF12002F0D2FE49
:104EE000012002F0C3FEDF2002F0CCFE102002F011
:104EF000BDFEC42002F0C6FE8F2002F0B7FEC62021
:104F000002F0C0FE002002F0B1FEE22002F0AEFE90
:104F1000E22002F0ABFEE22002F0A8FEBF2002F089
:104F2000B1FEAA2002F0A2FEB02002F0ABFE0D20DE
:104F300002F09CFE002002F099FE0D2002F096FE89
:104F4000002002F093FE112002F090FE002002F0FB
:104F50008DFE192002F08AFE002002F087FE21203B
:104F600002F084FE002002F081FE2D2002F07EFE81
:104F7000002002F07BFE3D2002F078FE002002F0CF
:104F800075FE5D2002F072FE002002F06FFE5D20D3
:104F900002F06CFE002002F069FEB12002F072FE09
:104FA000802002F063FE002002F060FE8B2002F001
:104FB0005DFE002002F05AFE962002F057FE00200F
:104FC00002F054FEB22002F05DFE002002F04EFE20
:104FD000002002F04BFE022002F048FE002002F00A
:104FE00045FE032002F042FE002002F03FFEB32007
:104FF00002F048FE002002F039FE002002F036FEEA
:10500000002002F033FE002002F030FE002002F00B
:105010002DFE002002F02AFE002002F027FE0020D4
:1050200002F024FE002002F021FE002002F01EFE0D
:10503000002002F01BFE002002F018FE002002F00B
:1050400015FE002002F012FE002002F00FFE0020EC
:1050500002F00CFE002002F009FE002002F006FE25
:10506000002002F003FE002002F000FE002002F00B
:10507000FDFD002002F0FAFD002002F0F7FD002007
:1050800002F0F4FDB42002F0FDFD8B2002F0EEFDF5
:10509000002002F0EBFD962002F0E8FD002002F077
:1050A000E5FDA12002F0E2FD002002F0DFFDB520C9
:1050B00002F0E8FD022002F0D9FD002002F0D6FD4A
:1050C000032002F0D3FD002002F0D0FD042002F006
:1050D000CDFD002002F0CAFDB62002F0D3FD002075
:1050E00002F0C4FD002002F0C1FDB72002F0CAFDAD
:1050F000002002F0BBFD002002F0B8FD3F2002F0CE
:10510000B5FD002002F0B2FD5E2002F0AFFD0020F0
:1051100002F0ACFD642002F0A9FD002002F0A6FD23
:105120008C2002F0A3FD002002F0A0FDAC2002F0D4
:105130009DFD002002F09AFDDC2002F097FD00208A
:1051400002F094FD702002F091FD002002F08EFD2F
:10515000902002F08BFD002002F088FDEB2002F091
:1051600085FD002002F082FDDC2002F07FFD0020A2
:1051700002F07CFDB82002F085FD002002F076FDF3
:10518000002002F073FD002002F070FD002002F00C
:105190006DFD002002F06AFD002002F067FD002096
:1051A00002F064FD002002F061FDBA2002F06AFD09
:1051B000242002F05BFD002002F058FD002002F0E8
:1051C00055FD002002F052FDC12002F05BFD2020C1
:1051D00002F04CFD002002F049FD542002F046FD93
:1051E000002002F043FDFF2002F040FD002002F00D
:1051F0003DFDC22002F046FD0A2002F037FD0020EE
:1052000002F034FD042002F031FD002002F02EFDFA
:10521000C32002F037FD3C2002F028FD002002F000
:1052200025FD3A2002F022FD002002F01FFD39206A
:1052300002F01CFD002002F019FD372002F016FDDF
:10524000002002F013FD3C2002F010FD002002F0CF
:105250000DFD362002F00AFD002002F007FD32208D
:1052600002F004FD002002F001FD2F2002F0FEFC00
:10527000002002F0FBFC2C2002F0F8FC002002F0E1
:10528000F5FC292002F0F2FC002002F0EFFC2620C1
:1052900002F0ECFC002002F0E9FC242002F0E6FC25
:1052A000002002F0E3FC242002F0E0FC002002F0E9
:1052B000DDFC232002F0DAFC002002F0D7FC3C20C9
:1052C00002F0D4FC002002F0D1FC362002F0CEFC2B
:1052D000002002F0CBFC322002F0C8FC002002F0DB
:1052E000C5FC2F2002F0C2FC002002F0BFFC2C20E5
:1052F00002F0BCFC002002F0B9FC292002F0B6FC50
:10530000002002F0B3FC262002F0B0FC002002F0E6
:10531000ADFC242002F0AAFC002002F0A7FC24200F
:1053200002F0A4FC002002F0A1FC232002F09EFC6D
:10533000002002F09BFCC42002F0A4FC622002F0DA
:1053400095FC002002F092FC052002F08FFC00206A
:1053500002F08CFC842002F089FC002002F086FC24
:10536000F02002F083FC002002F080FC182002F004
:105370007DFC002002F07AFCA42002F077FC0020E3
:1053800002F074FC182002F071FC002002F06EFCA8
:10539000502002F06BFC002002F068FC0C2002F0B0
:1053A00065FC002002F062FC172002F05FFC002088
:1053B00002F05CFC952002F059FC002002F056FC43
:1053C000F32002F053FC002002F050FCE62002F033
:1053D0004DFC002002F04AFCC52002F053FC3220B4
:1053E00002F044FC002002F041FC442002F03EFCAC
:1053F000002002F03BFC652002F038FC002002F0A7
:1054000035FC762002F032FC002002F02FFC8820D0
:1054100002F02CFC002002F029FCC62002F032FC35
:10542000202002F023FC002002F020FC172002F0D4
:105430001DFC002002F01AFC012002F017FC0020E5
:1054400002F014FCC72002F01DFC002002F00EFC4C
:10545000002002F00BFC002002F008FC002002F00B
:1054600005FCC82002F00EFC002002F0FFFB00202B
:1054700002F0FCFB002002F0F9FB002002F0F6FB3A
:10548000C92002F0FFFB002002F0F0FB002002F038
:10549000EDFB002002F0EAFB002002F0E7FB002019
:1054A00002F0E4FB002002F0E1FB002002F0DEFB52
:1054B000002002F0DBFB002002F0D8FB002002F00D
:1054C000D5FB002002F0D2FB002002F0CFFB002031
:1054D00002F0CCFB002002F0C9FB002002F0C6FB6A
:1054E000002002F0C3FBE02002F0CCFB162002F00B
:1054F000BDFB002002F0BAFB1C2002F0B7FB00202D
:1055000002F0B4FB212002F0B1FB002002F0AEFB60
:10551000362002F0ABFB002002F0A8FB462002F090
:10552000A5FB002002F0A2FB522002F09FFB00200E
:1055300002F09CFB642002F099FB002002F096FB35
:105540007A2002F093FB002002F090FB8B2002F007
:105550008DFB002002F08AFB992002F087FB0020DF
:1055600002F084FBA82002F081FB002002F07EFB09
:10557000B92002F07BFB002002F078FBC42002F08F
:1055800075FB002002F072FBCA2002F06FFB0020C6
:1055900002F06CFBD22002F069FB002002F066FBF7
:1055A000D92002F063FB002002F060FBE02002F053
:1055B0005DFB002002F05AFBF32002F057FB0020B5
:1055C00002F054FBE12002F05DFB162002F04EFBDE
:1055D000002002F04BFB1C2002F048FB002002F0F0
:1055E00045FB222002F042FB002002F03FFB362068
:1055F00002F03CFB002002F039FB452002F036FBB4
:10560000002002F033FB522002F030FB002002F0B9
:105610002DFB642002F02AFB002002F027FB7A20F9
:1056200002F024FB002002F021FB8B2002F01EFB85
:10563000002002F01BFB992002F018FB002002F072
:1056400015FBA82002F012FB002002F00FFBB9208E
:1056500002F00CFB002002F009FBC42002F006FB64
:10566000002002F003FBCA2002F000FB002002F041
:10567000FDFAD22002F0FAFA002002F0F7FAD82060
:1056800002F0F4FA002002F0F1FAE02002F0EEFA63
:10569000002002F0EBFAF32002F0E8FA002002F01A
:1056A000E5FAE22002F0EEFA052002F0DFFA00202F
:1056B00002F0DCFA0B2002F0D9FA002002F0D6FA50
:1056C0001B2002F0D3FA002002F0D0FA342002F0BE
:1056D000CDFA002002F0CAFA442002F0C7FA0020F6
:1056E00002F0C4FA4F2002F0C1FA002002F0BEFA24
:1056F000612002F0BBFA002002F0B8FA792002F033
:10570000B5FA002002F0B2FA882002F0AFFA0020C9
:1057100002F0ACFA972002F0A9FA002002F0A6FAF3
:10572000A62002F0A3FA002002F0A0FAB72002F0AF
:105730009DFA002002F09AFAC22002F097FA0020A7
:1057400002F094FAC72002F091FA002002F08EFADB
:10575000D12002F08BFA002002F088FAD62002F065
:1057600085FA002002F082FADD2002F07FFA0020A4
:1057700002F07CFAF32002F079FA002002F076FAC7
:10578000E32002F07FFA052002F070FA002002F018
:105790006DFA0A2002F06AFA002002F067FA1C2073
:1057A00002F064FA002002F061FA332002F05EFA9F
:1057B000002002F05BFA442002F058FA002002F0C8
:1057C00055FA502002F052FA002002F04FFA6220FF
:1057D00002F04CFA002002F049FA782002F046FA72
:1057E000002002F043FA882002F040FA002002F084
:1057F0003DFA972002F03AFA002002F037FAA6208C
:1058000002F034FA002002F031FAB72002F02EFA4A
:10581000002002F02BFAC22002F028FA002002F049
:1058200025FAC72002F022FA002002F01FFAD12048
:1058300002F01CFA002002F019FAD52002F016FA44
:10584000002002F013FADD2002F010FA002002F02E
:105850000DFAF32002F00AFA002002F007FAE42021
:1058600002F010FA012002F001FA002002F0FEF925
:10587000012002F0FBF9002002F0F8F9022002F00A
:10588000F5F9002002F0F2F92A2002F0EFF90020E9
:1058900002F0ECF93C2002F0E9F9002002F0E6F910
:1058A0004B2002F0E3F9002002F0E0F95D2002F065
:1058B000DDF9002002F0DAF9742002F0D7F90020B7
:1058C00002F0D4F9842002F0D1F9002002F0CEF9E0
:1058D000932002F0CBF9002002F0C8F9A22002F0D8
:1058E000C5F9002002F0C2F9B32002F0BFF9002090
:1058F00002F0BCF9BE2002F0B9F9002002F0B6F9BE
:10590000C42002F0B3F9002002F0B0F9CD2002F07B
:10591000ADF9002002F0AAF9D32002F0A7F9002087
:1059200002F0A4F9DD2002F0A1F9002002F09EF9B6
:10593000F32002F09BF9002002F098F9E52002F034
:10594000A1F9002002F092F9002002F08FF9002066
:1059500002F08CF9002002F089F9022002F086F9A9
:10596000002002F083F9292002F080F9002002F0E3
:105970007DF93C2002F07AF9002002F077F94B2003
:1059800002F074F9002002F071F95D2002F06EF966
:10599000002002F06BF9742002F068F9002002F098
:1059A00065F9842002F062F9002002F05FF993208B
:1059B00002F05CF9002002F059F9A22002F056F939
:1059C000002002F053F9B32002F050F9002002F059
:1059D0004DF9BE2002F04AF9002002F047F9C42038
:1059E00002F044F9002002F041F9CD2002F03EF926
:1059F000002002F03BF9D32002F038F9002002F039
:105A000035F9DC2002F032F9002002F02FF9F32002
:105A100002F02CF9002002F029F9E62002F032F918
:105A2000112002F023F9002002F020F9342002F0C6
:105A30001DF9002002F01AF9562002F017F9002093
:105A400002F014F9762002F011F9002002F00EF9AC
:105A5000772002F00BF9002002F008F9662002F02E
:105A600005F9002002F002F9882002F0FFF800207A
:105A700002F0FCF8992002F0F9F8002002F0F6F8A4
:105A8000BB2002F0F3F8002002F0F0F8992002F0B9
:105A9000EDF8002002F0EAF8662002F0E7F80020B6
:105AA00002F0E4F8552002F0E1F8002002F0DEF800
:105AB000552002F0DBF8002002F0D8F8452002F073
:105AC000D5F8002002F0D2F8432002F0CFF80020F1
:105AD00002F0CCF8442002F0C9F8002002F0C6F829
